{
  "_format": "hh-sol-artifact-1",
  "contractName": "Escrow",
  "sourceName": "contracts/Escrow.sol",
  "abi": [
    {
      "inputs": [],
      "stateMutability": "nonpayable",
      "type": "constructor"
    },
    {
      "inputs": [
        {
          "internalType": "address",
          "name": "receiver",
          "type": "address"
        },
        {
          "internalType": "uint256",
          "name": "amount",
          "type": "uint256"
        },
        {
          "internalType": "string",
          "name": "description",
          "type": "string"
        }
      ],
      "name": "createTask",
      "outputs": [],
      "stateMutability": "payable",
      "type": "function"
    },
    {
      "inputs": [
        {
          "internalType": "address",
          "name": "sender",
          "type": "address"
        },
        {
          "internalType": "uint256",
          "name": "id",
          "type": "uint256"
        }
      ],
      "name": "disputeTask",
      "outputs": [],
      "stateMutability": "nonpayable",
      "type": "function"
    },
    {
      "inputs": [
        {
          "internalType": "address",
          "name": "sender",
          "type": "address"
        },
        {
          "internalType": "uint256",
          "name": "id",
          "type": "uint256"
        }
      ],
      "name": "finalizeTask",
      "outputs": [],
      "stateMutability": "nonpayable",
      "type": "function"
    },
    {
      "inputs": [],
      "name": "saySomething",
      "outputs": [
        {
          "internalType": "address",
          "name": "",
          "type": "address"
        }
      ],
      "stateMutability": "view",
      "type": "function"
    },
    {
      "inputs": [
        {
          "internalType": "address",
          "name": "recv",
          "type": "address"
        },
        {
          "internalType": "uint256",
          "name": "id",
          "type": "uint256"
        }
      ],
      "name": "submitTask",
      "outputs": [],
      "stateMutability": "nonpayable",
      "type": "function"
    }
  ],
  "bytecode": "0x608060405267016345785d8a000060015534801561001c57600080fd5b50336000806101000a81548173ffffffffffffffffffffffffffffffffffffffff021916908373ffffffffffffffffffffffffffffffffffffffff1602179055506113a48061006c6000396000f3fe60806040526004361061004a5760003560e01c80634837ff921461004f57806358f5fef0146100785780635c26ad4b146100a157806373db06a1146100ca578063fbd61553146100e6575b600080fd5b34801561005b57600080fd5b5061007660048036038101906100719190610ad8565b610111565b005b34801561008457600080fd5b5061009f600480360381019061009a9190610ad8565b610328565b005b3480156100ad57600080fd5b506100c860048036038101906100c39190610ad8565b610540565b005b6100e460048036038101906100df9190610c5e565b6107b7565b005b3480156100f257600080fd5b506100fb610a07565b6040516101089190610cdc565b60405180910390f35b6000600360008473ffffffffffffffffffffffffffffffffffffffff1673ffffffffffffffffffffffffffffffffffffffff16815260200190815260200160002090506000805b828054905081101561019e578383828154811061017857610177610cf7565b5b906000526020600020015403610191576001915061019e565b8080600101915050610158565b506001151581151514806101fd575060008054906101000a900473ffffffffffffffffffffffffffffffffffffffff1673ffffffffffffffffffffffffffffffffffffffff163373ffffffffffffffffffffffffffffffffffffffff16145b61023c576040517f08c379a000000000000000000000000000000000000000000000000000000000815260040161023390610d83565b60405180910390fd5b60038081111561024f5761024e610da3565b5b6002848154811061026357610262610cf7565b5b906000526020600020906004020160020160009054906101000a900460ff16600381111561029457610293610da3565b5b146102d4576040517f08c379a00000000000000000000000000000000000000000000000000000000081526004016102cb90610e1e565b60405180910390fd5b6003600284815481106102ea576102e9610cf7565b5b906000526020600020906004020160020160006101000a81548160ff0219169083600381111561031d5761031c610da3565b5b021790555050505050565b6000600460008473ffffffffffffffffffffffffffffffffffffffff1673ffffffffffffffffffffffffffffffffffffffff16815260200190815260200160002090506000805b82805490508110156103b5578383828154811061038f5761038e610cf7565b5b9060005260206000200154036103a857600191506103b5565b808060010191505061036f565b50600115158115151480610414575060008054906101000a900473ffffffffffffffffffffffffffffffffffffffff1673ffffffffffffffffffffffffffffffffffffffff163373ffffffffffffffffffffffffffffffffffffffff16145b610453576040517f08c379a000000000000000000000000000000000000000000000000000000000815260040161044a90610e8a565b60405180910390fd5b6000600381111561046757610466610da3565b5b6002848154811061047b5761047a610cf7565b5b906000526020600020906004020160020160009054906101000a900460ff1660038111156104ac576104ab610da3565b5b146104ec576040517f08c379a00000000000000000000000000000000000000000000000000000000081526004016104e390610ef6565b60405180910390fd5b60016002848154811061050257610501610cf7565b5b906000526020600020906004020160020160006101000a81548160ff0219169083600381111561053557610534610da3565b5b021790555050505050565b6000600360008473ffffffffffffffffffffffffffffffffffffffff1673ffffffffffffffffffffffffffffffffffffffff16815260200190815260200160002090506000805b82805490508110156105cd57838382815481106105a7576105a6610cf7565b5b9060005260206000200154036105c057600191506105cd565b8080600101915050610587565b5060011515811515148061062c575060008054906101000a900473ffffffffffffffffffffffffffffffffffffffff1673ffffffffffffffffffffffffffffffffffffffff163373ffffffffffffffffffffffffffffffffffffffff16145b61066b576040517f08c379a000000000000000000000000000000000000000000000000000000000815260040161066290610e8a565b60405180910390fd5b60038081111561067e5761067d610da3565b5b6002848154811061069257610691610cf7565b5b906000526020600020906004020160020160009054906101000a900460ff1660038111156106c3576106c2610da3565b5b14806107255750600260038111156106de576106dd610da3565b5b600284815481106106f2576106f1610cf7565b5b906000526020600020906004020160020160009054906101000a900460ff16600381111561072357610722610da3565b5b145b610764576040517f08c379a000000000000000000000000000000000000000000000000000000000815260040161075b90610f62565b60405180910390fd5b600280848154811061077957610778610cf7565b5b906000526020600020906004020160020160006101000a81548160ff021916908360038111156107ac576107ab610da3565b5b021790555050505050565b600154826107c59190610fb1565b3414610806576040517f08c379a00000000000000000000000000000000000000000000000000000000081526004016107fd90611031565b60405180910390fd5b600260405180608001604052808573ffffffffffffffffffffffffffffffffffffffff1681526020018481526020016000600381111561084957610848610da3565b5b815260200183815250908060018154018082558091505060019003906000526020600020906004020160009091909190915060008201518160000160006101000a81548173ffffffffffffffffffffffffffffffffffffffff021916908373ffffffffffffffffffffffffffffffffffffffff1602179055506020820151816001015560408201518160020160006101000a81548160ff021916908360038111156108f7576108f6610da3565b5b021790555060608201518160030190816109119190611268565b505050600360003373ffffffffffffffffffffffffffffffffffffffff1673ffffffffffffffffffffffffffffffffffffffff1681526020019081526020016000206001600280549050610965919061133a565b9080600181540180825580915050600190039060005260206000200160009091909190915055600460008473ffffffffffffffffffffffffffffffffffffffff1673ffffffffffffffffffffffffffffffffffffffff16815260200190815260200160002060016002805490506109dc919061133a565b9080600181540180825580915050600190039060005260206000200160009091909190915055505050565b60008060009054906101000a900473ffffffffffffffffffffffffffffffffffffffff16905090565b6000604051905090565b600080fd5b600080fd5b600073ffffffffffffffffffffffffffffffffffffffff82169050919050565b6000610a6f82610a44565b9050919050565b610a7f81610a64565b8114610a8a57600080fd5b50565b600081359050610a9c81610a76565b92915050565b6000819050919050565b610ab581610aa2565b8114610ac057600080fd5b50565b600081359050610ad281610aac565b92915050565b60008060408385031215610aef57610aee610a3a565b5b6000610afd85828601610a8d565b9250506020610b0e85828601610ac3565b9150509250929050565b600080fd5b600080fd5b6000601f19601f8301169050919050565b7f4e487b7100000000000000000000000000000000000000000000000000000000600052604160045260246000fd5b610b6b82610b22565b810181811067ffffffffffffffff82111715610b8a57610b89610b33565b5b80604052505050565b6000610b9d610a30565b9050610ba98282610b62565b919050565b600067ffffffffffffffff821115610bc957610bc8610b33565b5b610bd282610b22565b9050602081019050919050565b82818337600083830152505050565b6000610c01610bfc84610bae565b610b93565b905082815260208101848484011115610c1d57610c1c610b1d565b5b610c28848285610bdf565b509392505050565b600082601f830112610c4557610c44610b18565b5b8135610c55848260208601610bee565b91505092915050565b600080600060608486031215610c7757610c76610a3a565b5b6000610c8586828701610a8d565b9350506020610c9686828701610ac3565b925050604084013567ffffffffffffffff811115610cb757610cb6610a3f565b5b610cc386828701610c30565b9150509250925092565b610cd681610a64565b82525050565b6000602082019050610cf16000830184610ccd565b92915050565b7f4e487b7100000000000000000000000000000000000000000000000000000000600052603260045260246000fd5b600082825260208201905092915050565b7f596f7520617265206e6f74207468652073656e6465722f726f6f740000000000600082015250565b6000610d6d601b83610d26565b9150610d7882610d37565b602082019050919050565b60006020820190508181036000830152610d9c81610d60565b9050919050565b7f4e487b7100000000000000000000000000000000000000000000000000000000600052602160045260246000fd5b7f5461736b20616c72656164792066696e616c697a656400000000000000000000600082015250565b6000610e08601683610d26565b9150610e1382610dd2565b602082019050919050565b60006020820190508181036000830152610e3781610dfb565b9050919050565b7f596f7520617265206e6f74207468652072656365697665722f726f6f74000000600082015250565b6000610e74601d83610d26565b9150610e7f82610e3e565b602082019050919050565b60006020820190508181036000830152610ea381610e67565b9050919050565b7f5461736b20616c7265616479207375626d697474656400000000000000000000600082015250565b6000610ee0601683610d26565b9150610eeb82610eaa565b602082019050919050565b60006020820190508181036000830152610f0f81610ed3565b9050919050565b7f5461736b20616c72656164792046696e616c697a65642f446973707574656400600082015250565b6000610f4c601f83610d26565b9150610f5782610f16565b602082019050919050565b60006020820190508181036000830152610f7b81610f3f565b9050919050565b7f4e487b7100000000000000000000000000000000000000000000000000000000600052601160045260246000fd5b6000610fbc82610aa2565b9150610fc783610aa2565b9250828201905080821115610fdf57610fde610f82565b5b92915050565b7f496e636f727265637420616d6f756e742073656e740000000000000000000000600082015250565b600061101b601583610d26565b915061102682610fe5565b602082019050919050565b6000602082019050818103600083015261104a8161100e565b9050919050565b600081519050919050565b7f4e487b7100000000000000000000000000000000000000000000000000000000600052602260045260246000fd5b600060028204905060018216806110a357607f821691505b6020821081036110b6576110b561105c565b5b50919050565b60008190508160005260206000209050919050565b60006020601f8301049050919050565b600082821b905092915050565b60006008830261111e7fffffffffffffffffffffffffffffffffffffffffffffffffffffffffffffffff826110e1565b61112886836110e1565b95508019841693508086168417925050509392505050565b6000819050919050565b600061116561116061115b84610aa2565b611140565b610aa2565b9050919050565b6000819050919050565b61117f8361114a565b61119361118b8261116c565b8484546110ee565b825550505050565b600090565b6111a861119b565b6111b3818484611176565b505050565b5b818110156111d7576111cc6000826111a0565b6001810190506111b9565b5050565b601f82111561121c576111ed816110bc565b6111f6846110d1565b81016020851015611205578190505b611219611211856110d1565b8301826111b8565b50505b505050565b600082821c905092915050565b600061123f60001984600802611221565b1980831691505092915050565b6000611258838361122e565b9150826002028217905092915050565b61127182611051565b67ffffffffffffffff81111561128a57611289610b33565b5b611294825461108b565b61129f8282856111db565b600060209050601f8311600181146112d257600084156112c0578287015190505b6112ca858261124c565b865550611332565b601f1984166112e0866110bc565b60005b82811015611308578489015182556001820191506020850194506020810190506112e3565b868310156113255784890151611321601f89168261122e565b8355505b6001600288020188555050505b505050505050565b600061134582610aa2565b915061135083610aa2565b925082820390508181111561136857611367610f82565b5b9291505056fea2646970667358221220bbace576cead4d1101af111de137fc3a65898dd33febaefe1b8d5bcadbb2948564736f6c63430008180033",
  "linkReferences": {},
  "deployedLinkReferences": {}
}